{
  "_format": "hh-sol-artifact-1",
  "contractName": "MockOracle",
  "sourceName": "contracts/MockOracle.sol",
  "abi": [
    {
      "inputs": [],
      "name": "InvalidInitialization",
      "type": "error"
    },
    {
      "inputs": [],
      "name": "NotInitializing",
      "type": "error"
    },
    {
      "inputs": [
        {
          "internalType": "address",
          "name": "owner",
          "type": "address"
        }
      ],
      "name": "OwnableInvalidOwner",
      "type": "error"
    },
    {
      "inputs": [
        {
          "internalType": "address",
          "name": "account",
          "type": "address"
        }
      ],
      "name": "OwnableUnauthorizedAccount",
      "type": "error"
    },
    {
      "anonymous": false,
      "inputs": [
        {
          "indexed": false,
          "internalType": "uint64",
          "name": "version",
          "type": "uint64"
        }
      ],
      "name": "Initialized",
      "type": "event"
    },
    {
      "anonymous": false,
      "inputs": [
        {
          "indexed": true,
          "internalType": "address",
          "name": "previousOwner",
          "type": "address"
        },
        {
          "indexed": true,
          "internalType": "address",
          "name": "newOwner",
          "type": "address"
        }
      ],
      "name": "OwnershipTransferred",
      "type": "event"
    },
    {
      "anonymous": false,
      "inputs": [
        {
          "indexed": false,
          "internalType": "string",
          "name": "rfid",
          "type": "string"
        },
        {
          "indexed": false,
          "internalType": "string",
          "name": "contractData",
          "type": "string"
        },
        {
          "indexed": false,
          "internalType": "string",
          "name": "rfidType",
          "type": "string"
        }
      ],
      "name": "RFIDDataChanged",
      "type": "event"
    },
    {
      "inputs": [
        {
          "internalType": "string",
          "name": "_rfid",
          "type": "string"
        }
      ],
      "name": "getRFIDData",
      "outputs": [
        {
          "internalType": "string",
          "name": "",
          "type": "string"
        }
      ],
      "stateMutability": "view",
      "type": "function"
    },
    {
      "inputs": [
        {
          "internalType": "string",
          "name": "_rfid",
          "type": "string"
        }
      ],
      "name": "getRFIDType",
      "outputs": [
        {
          "internalType": "string",
          "name": "",
          "type": "string"
        }
      ],
      "stateMutability": "view",
      "type": "function"
    },
    {
      "inputs": [
        {
          "internalType": "string",
          "name": "_rfidType",
          "type": "string"
        }
      ],
      "name": "getRfidsByType",
      "outputs": [
        {
          "internalType": "string[]",
          "name": "",
          "type": "string[]"
        }
      ],
      "stateMutability": "view",
      "type": "function"
    },
    {
      "inputs": [
        {
          "internalType": "address",
          "name": "initialOwner",
          "type": "address"
        }
      ],
      "name": "initialize",
      "outputs": [],
      "stateMutability": "nonpayable",
      "type": "function"
    },
    {
      "inputs": [],
      "name": "owner",
      "outputs": [
        {
          "internalType": "address",
          "name": "",
          "type": "address"
        }
      ],
      "stateMutability": "view",
      "type": "function"
    },
    {
      "inputs": [],
      "name": "renounceOwnership",
      "outputs": [],
      "stateMutability": "nonpayable",
      "type": "function"
    },
    {
      "inputs": [
        {
          "internalType": "string",
          "name": "_rfid",
          "type": "string"
        },
        {
          "internalType": "string",
          "name": "_contractData",
          "type": "string"
        },
        {
          "internalType": "string",
          "name": "_rfidType",
          "type": "string"
        }
      ],
      "name": "setRFIDData",
      "outputs": [],
      "stateMutability": "nonpayable",
      "type": "function"
    },
    {
      "inputs": [
        {
          "internalType": "address",
          "name": "newOwner",
          "type": "address"
        }
      ],
      "name": "transferOwnership",
      "outputs": [],
      "stateMutability": "nonpayable",
      "type": "function"
    }
  ],
  "bytecode": "0x608060405234801561001057600080fd5b50610b36806100206000396000f3fe608060405234801561001057600080fd5b50600436106100885760003560e01c80639438c7f51161005b5780639438c7f51461011a5780639af37a981461012d578063c4d66de814610140578063f2fde38b1461015357600080fd5b80632e20d3d91461008d57806345912fe3146100b6578063715018a6146100d65780638da5cb5b146100e0575b600080fd5b6100a061009b3660046107a2565b610166565b6040516100ad919061082f565b60405180910390f35b6100c96100c43660046107a2565b610216565b6040516100ad9190610849565b6100de61030d565b005b7f9016d09d72d40fdae2fd8ceac6b6234c7706214fd39c1cd1e609a0528c199300546040516001600160a01b0390911681526020016100ad565b6100de6101283660046108ab565b610321565b6100a061013b3660046107a2565b610471565b6100de61014e366004610933565b610483565b6100de610161366004610933565b610593565b6060600082604051610178919061095c565b9081526020016040518091039020805461019190610978565b80601f01602080910402602001604051908101604052809291908181526020018280546101bd90610978565b801561020a5780601f106101df5761010080835404028352916020019161020a565b820191906000526020600020905b8154815290600101906020018083116101ed57829003601f168201915b50505050509050919050565b6060600282604051610228919061095c565b9081526020016040518091039020805480602002602001604051908101604052809291908181526020016000905b8282101561030257838290600052602060002001805461027590610978565b80601f01602080910402602001604051908101604052809291908181526020018280546102a190610978565b80156102ee5780601f106102c3576101008083540402835291602001916102ee565b820191906000526020600020905b8154815290600101906020018083116102d157829003601f168201915b505050505081526020019060010190610256565b505050509050919050565b6103156105d1565b61031f600061062c565b565b6103296105d1565b600083604051610339919061095c565b9081526020016040518091039020805461035290610978565b15905061039d5760405162461bcd60e51b815260206004820152601460248201527352464944206769c3a0207265676973747261746f60601b60448201526064015b60405180910390fd5b816000846040516103ae919061095c565b908152602001604051809103902090816103c891906109fd565b50806001846040516103da919061095c565b908152602001604051809103902090816103f491906109fd565b50600281604051610405919061095c565b90815260405160209181900382019020805460018101825560009182529190200161043084826109fd565b507fa83b5cf1ecb281240bfa8a8636030385fd0eeb9cbe21acd594f63285fa7ee0eb83838360405161046493929190610abd565b60405180910390a1505050565b6060600182604051610178919061095c565b7ff0c57e16840df040f15088dc2f81fe391c3923bec73e23a9662efc9c229c6a008054600160401b810460ff16159067ffffffffffffffff166000811580156104c95750825b905060008267ffffffffffffffff1660011480156104e65750303b155b9050811580156104f4575080155b156105125760405163f92ee8a960e01b815260040160405180910390fd5b845467ffffffffffffffff19166001178555831561053c57845460ff60401b1916600160401b1785555b6105458661069d565b831561058b57845460ff60401b19168555604051600181527fc7f505b2f371ae2175ee4913f4499e1f2633a7b5936321eed1cdaeb6115181d29060200160405180910390a15b505050505050565b61059b6105d1565b6001600160a01b0381166105c557604051631e4fbdf760e01b815260006004820152602401610394565b6105ce8161062c565b50565b336106037f9016d09d72d40fdae2fd8ceac6b6234c7706214fd39c1cd1e609a0528c199300546001600160a01b031690565b6001600160a01b03161461031f5760405163118cdaa760e01b8152336004820152602401610394565b7f9016d09d72d40fdae2fd8ceac6b6234c7706214fd39c1cd1e609a0528c19930080546001600160a01b031981166001600160a01b03848116918217845560405192169182907f8be0079c531659141344cd1fd0a4f28419497f9722a3daafe3b4186f6b6457e090600090a3505050565b6106a56106ae565b6105ce816106f7565b7ff0c57e16840df040f15088dc2f81fe391c3923bec73e23a9662efc9c229c6a0054600160401b900460ff1661031f57604051631afcd79f60e31b815260040160405180910390fd5b61059b6106ae565b634e487b7160e01b600052604160045260246000fd5b600082601f83011261072657600080fd5b813567ffffffffffffffff80821115610741576107416106ff565b604051601f8301601f19908116603f01168101908282118183101715610769576107696106ff565b8160405283815286602085880101111561078257600080fd5b836020870160208301376000602085830101528094505050505092915050565b6000602082840312156107b457600080fd5b813567ffffffffffffffff8111156107cb57600080fd5b6107d784828501610715565b949350505050565b60005b838110156107fa5781810151838201526020016107e2565b50506000910152565b6000815180845261081b8160208601602086016107df565b601f01601f19169290920160200192915050565b6020815260006108426020830184610803565b9392505050565b6000602080830181845280855180835260408601915060408160051b870101925083870160005b8281101561089e57603f1988860301845261088c858351610803565b94509285019290850190600101610870565b5092979650505050505050565b6000806000606084860312156108c057600080fd5b833567ffffffffffffffff808211156108d857600080fd5b6108e487838801610715565b945060208601359150808211156108fa57600080fd5b61090687838801610715565b9350604086013591508082111561091c57600080fd5b5061092986828701610715565b9150509250925092565b60006020828403121561094557600080fd5b81356001600160a01b038116811461084257600080fd5b6000825161096e8184602087016107df565b9190910192915050565b600181811c9082168061098c57607f821691505b6020821081036109ac57634e487b7160e01b600052602260045260246000fd5b50919050565b601f8211156109f857600081815260208120601f850160051c810160208610156109d95750805b601f850160051c820191505b8181101561058b578281556001016109e5565b505050565b815167ffffffffffffffff811115610a1757610a176106ff565b610a2b81610a258454610978565b846109b2565b602080601f831160018114610a605760008415610a485750858301515b600019600386901b1c1916600185901b17855561058b565b600085815260208120601f198616915b82811015610a8f57888601518255948401946001909101908401610a70565b5085821015610aad5787850151600019600388901b60f8161c191681555b5050505050600190811b01905550565b606081526000610ad06060830186610803565b8281036020840152610ae28186610803565b90508281036040840152610af68185610803565b969550505050505056fea2646970667358221220380f164bd0d9f3a157f3ee45d71a1ace117fc0b77b2060eacd82feed604ccdce64736f6c63430008140033",
  "linkReferences": {},
  "deployedLinkReferences": {}
}